:020000040000FA
:1000000080030020018800002B1600006190000092
:1000100000000000000000000000000000000000E0
:10002000000000000000000000000000B317000006
:1000300000000000000000006F950000211A000081
:10004000C91A00006D950000B11700006D13000083
:10005000D99500006F1300008D8E0000998E00006E
:100060000000000000000000000000000000000090
:10007000BD88000013880000C71A000043970000E5
:1000800013880000138800000000000029160000FB
:10009000298C0000138800001388000009910000DB
:1000A000000000007195000000000000C51A00006B
:1000B000419700001388000000000000418E0000FE
:1000C0000448854600F008F800480047EB99000016
:1000D000C046C04680030020064C0125064E05E0C0
:1000E000E36807CC2B430C3C98471034B442F7D359
:1000F000FFF7EAFF1C0100003C01000002E008C815
:10010000121F08C1002AFAD170477047002001E091
:1001100001C1121F002AFBD1704700003C01000002
:10012000000000205C000000FC00000098010000BE
:100130005C000020240300000C010000000000000F
:100140000000000000000000FEFFFFFF00000A00AA
:10015000000000000000000000000000000000009F
:1001600000000000000000003800002038000020DF
:1001700038000020000000000000FFFF0000000029
:10018000000000000000000000000000000000006F
:080190000000000000093D0021
:020000040000FA
:1010000030B50B46014600202022012409E00D46A0
:10101000D5409D4205D31D469540491B2546954028
:1010200040191546521E002DF1DC30BD10B594B0AC
:101030001648816B164A11438163302000900020CE
:10104000019040200390072005900F200490079006
:101050000690684607F052FC0121084607F0FEFBA7
:1010600007F0EEFB0121022000F01AF807F0EEFB7A
:101070000848094C408AE06308494843FF21F4319D
:10108000FFF7BEFF206414B010BD00000040004018
:1010900001005A5AC00710003C010020DB05000087
:1010A00070B504460D46002D05D0012D03D0F72163
:1010B0000AA000F06BFD200901D1002C03D1F8211A
:1010C00006A000F063FD0D48002D03D0416B2143C5
:1010D000416370BD416BA143416370BD2E2E5C4CDA
:1010E00069627261726965735C7372635C637733A2
:1010F000326C3031315F6164632E63004000004028
:1011000004490A68C00752085200C00F02430A602F
:10111000704700000014004000B587B02648816B7E
:10112000264A1143816326484168D20491434160B5
:10113000416852009143416041680F22120591437A
:10114000416041680215914341604168C214914376
:101150004160416882149143416041684214914367
:10116000416041680F2212049143416041680322AB
:101170001202914341604168021491434160416809
:10118000090A0902416001206946087000200190A7
:1011900010210291039004904B20400105901820EB
:1011A0000690684607F0B2FC022007F00FFD012010
:1011B000FFF7A6FF07B000BD0040004020005A5ACC
:1011C0004014004010B52949087803280DD2401C6E
:1011D00008700A21264800F0A7FC0120800701685A
:1011E000FF22C1329143C03101602148E122214BED
:1011F00092000A21143807F047FC1F4C60801C49FC
:101200000831002801D10A208874887C002802D087
:10121000401E887402E0002000F004FD174A618837
:10122000D0880905800A8002890D0843D0800F21EB
:10123000890288430421615E002900DA0821090738
:10124000890C08430E4B19698907CC170121A1436A
:1012500089030124A403A043084319694004C90772
:10126000090C400C0843D08010BD00000000002095
:1012700054010020DC050000CC00002020000020EC
:101280004001004870B504460D460D4884420BD01D
:101290000B484030844207D009488030844203D054
:1012A000922108A000F072FC012D05D0402D03D042
:1012B000932104A000F06AFCA069A843A06170BD5E
:1012C000004800402E2E5C4C696272617269657341
:1012D0005C7372635C637733326C3031315F62749C
:1012E000696D2E630000000070B504460D46164679
:1012F000144884420BD013484030844207D0114830
:101300008030844203D072210FA000F03FFC002EF9
:1013100005D0012E03D073210BA000F037FC012D66
:1013200005D0402D03D0742107A000F02FFC002E23
:1013300003D0E0682843E06070BDE068A843E06047
:1013400070BD0000004800402E2E5C4C6962726146
:10135000726965735C7372635C637733326C3031CE
:10136000315F6274696D2E630000000070470020D9
:101370000921C906886370474165704730B5134934
:1013800009684B054A075B0F520FDB001A434B03FA
:101390005B0F9B014901490F1A4349020A4302802E
:1013A000FF24963400210A4B0BE08D005D5BAA42BE
:1013B00005D18900C91849884180002030BD491CE9
:1013C00089B2A142F1D3012030BD000020000020ED
:1013D000301E000010B50446002C05D0012C03D0AF
:1013E000682107A000F0D2FB0D480421002C03D097
:1013F00082680A43826010BD82688A43826010BDA1
:101400002E2E5C4C69627261726965735C737263E3
:101410005C637733326C3031315F6932632E630045
:101420000058004000B585B01148416B114A114386
:101430004163114800901148019054206946087496
:1014400056204874582088740020C87400F01AF898
:10145000684600F05DF80A48816801221143816006
:10146000012007F0FFFD0120FFF7B4FF05B000BD2C
:101470000040004040005A5A006CDC0240420F001D
:10148000005800400548426840218A434260426853
:101490000A43426002490020886070474040004093
:1014A0000058004010B50446002C05D0012C03D094
:1014B000C02108A000F06AFB0E48002C04D001698E
:1014C00001221143016110BD016949084900016110
:1014D00010BD00002E2E5C4C6962726172696573EA
:1014E0005C7372635C637733326C3031315F6932C5
:1014F000632E630000580040044A116AFE2340082E
:1015000099434000014311627047000000580040B9
:1015100010B5044611496068884204D9FF2135316D
:101520000FA000F033FB61682068FFF769FD2828F1
:1015300003D8012007F0BEFD02E0002007F0BAFD4D
:10154000207C07F0C7FEE07CFFF7ACFF607CFFF774
:10155000D3FFA07C07F0CAFE10BD000040420F0080
:101560002E2E5C4C69627261726965735C73726382
:101570005C637733326C3031315F6932632E6300E4
:1015800010B5052901D2042801D3012010BD064A57
:101590004907135C490FDB08DB000B43135407F0CA
:1015A000B1FE002010BD000020000020F8B5154C51
:1015B00020252078144E4107002917DB80070027DB
:1015C000002801DA678004E008F0D6F8002800D08F
:1015D0006780022000F050F80C49002007F074FFEB
:1015E000F5612078042108432070F8BD8007FCD401
:1015F000B561002000F040F82078FB210840207001
:10160000F8BD000016000020400000481000002037
:1016100010B504480078400702D40020FFF7C6FF49
:1016200010BD0000160000207047704710B572B65C
:1016300003210C2000F056FA02210D2000F052FA8E
:101640000021142000F04EFA0121172000F04AFA80
:101650000C2008F077F80D2008F074F8142008F03A
:1016600071F8172008F06EF8052008F06BF80620D6
:1016700008F068F862B610BDF0B585B0484900289A
:1016800028D08A68920704D48A68464B92B21A43DB
:101690008A60072109240905002520231026E40675
:1016A0000A01012821D003277F0302283AD003280A
:1016B00051D004286CD060698843606160699043B0
:1016C00060610097039501966946204607F07CFC0F
:1016D00005B0F0BD8A689207DBD58A68324B1A40A4
:1016E000304B9B1ED2188A60D3E760698843012182
:1016F0000905401860616069090190434018606104
:1017000001938812009003956946204607F05CFC1F
:10171000012040030090039501966946204607F09A
:1017200053FCD5E760698843012189054018606151
:101730006069090190434018606121200190009781
:10174000402003906946204607F03EFC1748416957
:1017500039434161BCE7606988430121490540186C
:10176000606160690901904340186061019308134A
:10177000009003956946204607F026FC012080036F
:101780000090039501966946204607F01DFC9FE7EF
:1017900060690843606160691043606198E7000018
:1017A0000040004002005A5AFDFF0000400000487F
:1017B0007047704710B5082007F010FF002000F0B8
:1017C000D7F80120C00200F02DF811490F48086039
:1017D0001048114C60610321081F00F083F90020BC
:1017E000A061072121610D4908700D48C16A4908AF
:1017F0004900C162C16A04229143C1628168082321
:101800001943816081681143816010BD00D8B8051B
:1018100058000020FFFFFF0000E000E0540000201F
:1018200000400040F8B50446444D0126F60277001A
:10183000B4423AD0BC4238D00320C002844234D0F3
:10184000B000844231D00520C00284422DD0032054
:101850000003844229D00720C002844225D0F00032
:10186000844222D00920C00284421ED005200003F9
:1018700084421AD00B20C002844216D003204003B9
:10188000844212D00D20C00284420ED007200003F3
:1018900084420AD00F20C002844206D0002C04D01B
:1018A000FF211F3126A000F071F92E492E48B442C5
:1018B00004D182682D4B1A43826027E0BC4203D0DA
:1018C0000322D20294420FD182695204120F012ADC
:1018D00004D10A885205520D224382618268234B4B
:1018E000203B1A43826011E082695204120F032ADE
:1018F00004D80A885205520D2243826182680F4B38
:10190000703B1A40194B303BD21882600988490558
:10191000490D214381614168144A2F3A11434160C6
:1019200001E06D1EADB28169090401D4002DF8D12A
:10193000002D01D00020F8BD0120F8BDFFFF000000
:101940002E2E5C4C69627261726965735C7372639E
:101950005C637733326C3031315F737973637472E7
:101960006C2E6300C00710000040004030005A5A3F
:1019700010B50446002C09D0012C07D0032C05D04B
:10198000042C03D04A2108A000F000F90F49086890
:101990000F4A10400F4A20431043086007F0EAFD49
:1019A00000F01AF810BD00002E2E5C4C69627261C6
:1019B000726965735C7372635C637733326C303168
:1019C000315F7379736374726C2E63000040004062
:1019D000F8FF000000005A5A0149086070470000F3
:1019E0005800002010B50C4C2078C008C0002070B2
:1019F00008F06EF809480069C043800704D02078D9
:101A000002210843207003E02078FD210840207067
:101A10000120C043A07110BD160000204001004805
:101A200070470000024901480860704700093D0006
:101A30005800002010B507F03BFE10BD38B500245B
:101A40000A2365221A491B48009408F0DDF819485A
:101A50001E23162218491C38009408F0D5F81548A2
:101A60006423322215491C30009408F0CDF8114847
:101A700000F0C4F90F481C3800F0C0F90D481C30C4
:101A800000F0BCF90B48C82308220D4938300094F7
:101A900008F0BAF80748383000F0B0F9FFF7C2FC98
:101AA00007F030FC07F030FDFFF79CFF38BD000069
:101AB0000195000078000020351A0000C5110000D3
:101AC000458E000070477047704730B47446641EFE
:101AD0002578641CAB4200D21D46635D5B00E318B1
:101AE00030BC18478307FF22DB0E9A408907090E96
:101AF0009940002808DB830809489B0018180368F0
:101B000093430B43036070470007000F08388308B6
:101B100004489B001818C36993430B43C361704783
:101B200000E400E000ED00E010B57D23E1221B01A0
:101B3000920006F0A9FF104C0146A0860F4A8018BB
:101B4000332811D319208001814202D90C48A063A7
:101B500008E0AF20C000814202D90A48A06301E03A
:101B60000948A063012010BDE06B0003FFF748FAAD
:101B7000A063002010BD00003C0100204AFCFFFFD4
:101B8000B80B0000E40C0000881300007047000050
:101B9000224A234901280AD01069C0438307084616
:101BA000C07814D0282816D2001DC87013E0106920
:101BB000C043800701D0282000E00020C8701069D1
:101BC000800701D4002000E01420087111E00028F3
:101BD00001D0401EC870106982071148007904D4F2
:101BE000142806D2401C087103E0002801D0401ED2
:101BF0000871C878282801D200280CD10979002959
:101C000001D0142907D3282801D3002901D00020AE
:101C10007047012070470020C043704740010048D2
:101C20000400002010B50020FFF7B2FF00280ADBF7
:101C3000054C608807F092FD00B26081002802DB4D
:101C4000A08000F003F810BDCC00002070B5384C27
:101C5000A268384B0421551C0026595E1046F643F5
:101C60002B00FFF732FF06040A16222E3A40FF230C
:101C70003233994256DD002054E0FF232833994245
:101C800001DA30464EE0FF23503399424ADD01200D
:101C900048E0FF234633994201DA002042E0FF2367
:101CA0006E3399423EDD02203CE0FF2364339942CB
:101CB00001DA012036E0FF238233994232DD03202E
:101CC00030E0FF237833994201DA02202AE0FF2333
:101CD0009633994226DD042024E0FF238C33994279
:101CE00020DA03201EE0FF202D30814201DA304649
:101CF00018E0FF204B30814201DA002012E0FF2083
:101D00006930814201DA01200CE0FF207D30814200
:101D100001DA022006E0FF209130814201DA03203F
:101D200000E00420904202D003498871A06070BD99
:101D300004000020CC00002016000020F8B5044666
:101D40000D4617461E463021204606F06EFDA0794E
:101D50000007000F8030A071E5603046A847C10140
:101D6000E0794006400E0843BF210840F907490EBC
:101D70000843E07126720698A0700798A080F8BD0D
:101D8000074B19680A4605E0814202D10020C04392
:101D90007047C96A0029F7D1C262186000207047F5
:101DA0005000002010B50548046803E0204607F005
:101DB00019FDE46A002CF9D110BD0000500000208C
:101DC00070B50D4D2C680FE020686968081A6168CD
:101DD000884208D3E068002809D069682160606003
:101DE000616920698847A469002CEDD170BD204647
:101DF00007F018FFF4E7000048000020074B1968BF
:101E00000A4605E0814202D10020C043704789693B
:101E10000029F7D182611860002070474800002037
:101E200002484168491C416070470000480000209A
:101E30005A0806101A030910CA081208E2022108FB
:101E40000A07181862062418530806021303090229
:101E5000D108420AD402810A1107481A5406841A8A
:101E60008B081201A3022101990842119C028111E1
:101E7000A10660198C069019E104600BCC04900B4C
:101E80000B05180363042403190548135C04841329
:101E90005A0004101A0108101A0201101A08021040
:101EA000CA001008E2002008C2020108C2080208A5
:101EB0000A061018220620184206041802070818FD
:101EC0005300040213010802130201021308020264
:101ED000D100400AD400800AD002010AD008020AC8
:101EE0001106401A1406801A5006041A1007081A20
:101EF0008B001001A300200183020101830802016D
:101F0000990040119C00801198020111980802115B
:101F1000810640198406801988061019A006201928
:101F20000B041003230420034304040303050803E4
:101F3000190440131C0480135804041318050813D3
:101F4000C104400BC404800BC804100BE004200B38
:101F50000A0118386200243842080638020309389A
:101F60001101483A1108423A5400843A1402813A65
:101F70005008063A1003093AA10060398108423935
:101F80008C00903984028139880812392104603B21
:101F90000C04903B4404843B0A0812382202213886
:101FA000A00221390105483B0805183B6004243B89
:101FB0000B0118070B0812076300240723022107EF
:101FC00043080607030309071901481719084217B0
:101FD0005C0084171C02811758080617180309179C
:101FE000E100600FC108420FCC00900FC402810FC6
:101FF000C808120FE002210F2106601F0107481FC9
:102000000C06901F4406841F0807181F6006241F33
:102010000000003F0002013F0008023F0100403F76
:102020000400803F0800103F2000203F4000043F94
:102030000001083F020000381000003A800000391B
:102040000004003B0300000718000017C000000F49
:102050000006001F4002053F0003093F180400135B
:102060000101483F0102413F0108423F4400843FD3
:102070000401883F0402813F0408823F0801183FA1
:102080002001283F4008063F00090A3F02020138AC
:10209000020802381002013A1008023AA000203962
:1020A00080020139800802390804103B2004203BDB
:1020B0004004043B0005083B0808123F2008223F6B
:1020C0000302010703080207180201171808021784
:1020D000C002010FC008020F4006041F0007081FBE
:1020E0000900503F2100603F4100443F0C00903FF9
:1020F0002400A03F4800143F6000243F0A0010382D
:102100002200203842000438020108381100403A09
:102110001400803A5000043A1001083A8100403916
:1021200084008039880010390104403B0404803B5E
:102130000802113F2002213F0B0010072300200757
:102140004300040703010807190040171C0080170B
:102150005800041718010817C100400FC400800F71
:10216000C800100FE000200F0106401F0406801F6A
:102170000806101F2006201F1A000010C2000008C9
:102180000206001813000002D000000A1006001A10
:102190008300000198000011800600190304000369
:1021A000C004000B4A0014384C00943F4802153F0D
:1021B0006002253F5100443A890050390904503BE0
:1021C0004900543F6100643F4102453F6400A43F21
:1021D000220128384202053802090A381401883AD7
:1021E0005002053A10090A3AA400A03988021139B0
:1021F0002404A03B2003293F43020507580205178A
:10220000C802110F4806141F0901583F0902513F27
:102210000908523F2101683F2102613F2108623FC6
:102220004108463F2402A13F2408A23F4808163F28
:102230006008263F1102413A1408823A810241396E
:10224000840882390405883B01094A3F0C08923F03
:102250004408863F0403893F04098A3F0803193F65
:1022600008091A3F20092A3F22082238A0082239EB
:102270002005283B0B0211072308220703090A0740
:10228000190241171C08821718090A17C102410FC9
:10229000C408820FE008220F4106441F0407881F6C
:1022A0002007281F0C01983F2401A83F0103493F44
:1022B0000C02913F4402853F0A0211384104443B1D
:1022C0004804143B4B001407230128075900441706
:1022D0001C018817C900500FE400A00F0906501F09
:1022E0002406A01F59024517C902510F4906541F61
:1022F000CA0211084A06141853020502D102410A03
:102300005106441A8B021101990241118906501994
:102310004B041403C904500B4A0215386302250705
:102320005C028517CC02910F4C06941F5A020510CF
:102330000C03993F2403A93F4C02953F6402A53F3B
:10234000620225385102453A4904543B4C04943BFF
:102350004B0215070B031907230329071903491714
:102360001C038917E102610FE402A10F6106641FDB
:102370006406A41F1A090A10E20822082207281876
:1023800013090A02D408820A1407881AA308220132
:102390009C088211A406A019E404A00B0C099A3F22
:1023A0002409AA3F23052803590444131C05881354
:1023B0004902553F4908563F0903593F09095A3F09
:1023C0006102653F6108663F2103693F21096A3F59
:1023D0004C08963F6408A63F4A0816380A03193885
:1023E0000A091A38620826382203293822092A38AD
:1023F0005108463A1103493A11094A3A5402853ABA
:102400005408863A1403893A14098A3A89025139E0
:1024100089085239A1026139A10862398C029139C7
:102420008C089239A402A139A408A2390905583BA5
:102430006104643B2105683B0C05983B6404A43BA4
:102440002405A83B4B0816070B091A076308260743
:1024500023092A075908461719094A175C088617DD
:102460001C098A17C908520FE108620FCC08920FA5
:10247000E408A20F0907581F2107681F0C07981FBF
:042480002407A81F66
:020000040000FA
:108800000448804704480047FEE7FEE7FEE7FEE72E
:10881000FEE7FEE74D960000C1000000D2B201E085
:108820000270401C491EFBD270470022F6E710B5CB
:1088300013460A4604461946FFF7F0FF204610BDCE
:1088400001490020886370474000004001208007F4
:1088500001680122114301600120704770B505468F
:108860000C46002C06D0012C04D0FF2141310BA076
:10887000F9F78CF9002D04D1FF21423107A0F9F757
:1088800085F901208007002C03D08169294381618B
:1088900070BD8169A943816170BD00002E2E5C4CC2
:1088A00069627261726965735C7372635C6377336A
:1088B000326C3031315F6164632E630010B50D4A54
:1088C000D06B00238007002811DA0B4908780928AB
:1088D00002D2401C087000E00B7010680C78640035
:1088E0006418A08050680C78640061180883936352
:1088F00010BD0000400000403C010020F8B50446D7
:108900002068002809D0102807D0202805D030285A
:1089100003D05D2152A0F9F739F95948816B594AC2
:1089200011438163E168206863680143900702682E
:10893000FF25F935AA43134319430160227A022126
:10894000002A03D002680A43026002E002688A43F8
:108950000260627A0421002A03D002680A4302609E
:1089600002E002688A430260C16A227D09090901A6
:108970001207120F1143C162C16A237FF0221B0745
:1089800091431B0E1943C162C16AA58C13012D07C7
:1089900099432D0D2943C162C16AA68D1502360780
:1089A000A943360C3143C162C16A1603B143A68E96
:1089B0003607360B3143C162C16AA78F16043F07E1
:1089C000B1433F0A3943C162C16A1705B943676CB5
:1089D0003F073F093943C162C16AE76C09010909D0
:1089E0003F073943C162816A277C090909013F07B2
:1089F0003F0F39438162816A9143227E1207120E32
:108A000011438162816A228C99431207120D11432E
:108A10008162816A228DA9431207120C114381627F
:108A2000816A1A029143228E1207120B114381624E
:108A3000816A228FB1431207120A11438162816A4F
:108A40001A049143226C1207120911438162816A50
:108A5000A26C09010909120711438162F8BD0000E7
:108A60002E2E5C4C69627261726965735C7372630D
:108A70005C637733326C3031315F6164632E630045
:108A80000040004001005A5AFFB581B086468C462E
:108A90000020002400256146002905D0022905D2C6
:108AA0007046008805B0F0BD0020FBE700210026DD
:108AB000002315E05F007246D25B039FBA420DD3DC
:108AC000049FBA420AD8002E14D0824200D9104620
:108AD000A24200D214465519491CC9B25B1CDBB234
:108AE0006345E7D3022909D803998842DAD870464A
:108AF0000088D7E7104604460126ECE7281A001B39
:108B0000891EF8F77DFA80B2CCE7000010B5044664
:108B1000A068002805D0102803D028211FA0F9F74D
:108B200035F8E068082805D0002803D029211BA0CB
:108B3000F9F72CF86068002809D0202807D04028D1
:108B400005D0602803D02A2114A0F9F71FF81C498A
:108B50002069884203D92B2110A0F9F717F819488A
:108B6000816B202211438163A168E0686268014340
:108B70002078002801D0802000E000200243124825
:108B800011430268F8239A4311430160216981620D
:108B90006169C162A169016310BD00002E2E5C4CA9
:108BA00069627261726965735C7372635C63773367
:108BB000326C3031315F6174696D2E6300000000EA
:108BC000FFFF0000004000400014004010B50446C4
:108BD0001F2C03D987210AA0F8F7D8FF1148416854
:108BE000702291436207520E114341604168032293
:108BF00052069143E206920F52061143416010BDA6
:108C00002E2E5C4C69627261726965735C7372636B
:108C10005C637733326C3031315F6174696D2E6320
:108C2000000000000014004010B5074C0121204650
:108C300000F06EF8002805D001212046F8F722FB4D
:108C4000F9F7EEF810BD00000048004070B504468A
:108C50000D46114884420BD00F484030844207D063
:108C60000D488030844203D063210CA0F8F78EFFBA
:108C7000002D05D0012D03D0642108A0F8F786FF50
:108C8000002D04D0206801210843206070BD2068B9
:108C900040084000206070BD004800402E2E5C4C13
:108CA00069627261726965735C7372635C63773366
:108CB000326C3031315F6274696D2E6300000000E8
:108CC0001CB50E48416B0E4A1143416300206A46B1
:108CD00010800C499180D08050800B4C6946204612
:108CE00000F04CF8012211462046F8F7FDFA07493A
:108CF000616201212046FFF7A9FF1CBD0040004032
:108D000004005A5A7FBB000000480040409C00000D
:108D100070B504460D460F4884420BD00D484030D4
:108D2000844207D00B488030844203D082210AA0BD
:108D3000F8F72CFF012D05D0402D03D0832106A08C
:108D4000F8F724FF2069284201D0012070BD0020DF
:108D500070BD0000004800402E2E5C4C69627261BC
:108D6000726965735C7372635C637733326C303144
:108D7000315F6274696D2E630000000070B50446B7
:108D80000D46224884420BD020484030844207D010
:108D90001E488030844203D049211DA0F8F7F6FE1A
:108DA0006888002809D0032807D0012805D00228A8
:108DB00003D04A2116A0F8F7E9FE28881D49401E75
:108DC000884203D94B2112A0F8F7E0FEE888082872
:108DD00005D0002803D04C210DA0F8F7D7FE164887
:108DE000416B164A11434163A888E0622888A0625B
:108DF000206808218843E98808432060A0686988C2
:108E0000C008C0000843A06070BD000000480040DA
:108E10002E2E5C4C69627261726965735C73726359
:108E20005C637733326C3031315F6274696D2E630D
:108E300000000000FEFF00000040004004005A5AFD
:108E40007047000010B5104C2368002B1BD0012088
:108E500003432360201D0146826803C9002A05D010
:108E6000002903D0002801D098470AE0002903D048
:108E7000002801D0984704E0002801D0984700E07E
:108E800098470020206010BD2800002001490020E4
:108E900088637047000100480149002088637047DB
:108EA00000020048F0B585B04248016B424A1143C8
:108EB0000163016B404A103211430163016B3E4A6A
:108EC00030321143016309200021C006F8F754FA3B
:108ED00000213A48F8F750FA00213948F8F74CFADF
:108EE0008020029000900024039401940920694698
:108EF000C00600F069F800946946304800F064F854
:108F0000102601960394009409206946C00600F0DB
:108F10005BF800946946294800F056F8402703970B
:108F20001F20009009206946C00600F04DF803207C
:108F300000906946214800F047F8009469462048AF
:108F400000F042F821250195009403970920694615
:108F5000C00600F039F820200190039419480090D1
:108F600009206946C00600F02FF8B8200090694635
:108F7000124800F029F80720400300906946104885
:108F800000F022F8019503256D030095092069463C
:108F9000C00600F019F800946946084800F014F87B
:108FA00000950394019609206946C00600F00CF86C
:108FB00005B0F0BD0040004010005A5A00010048C2
:108FC00000020048609F00000A68002A20D04B6819
:108FD000002B1AD0C3699343C3610A79D20622D504
:108FE00002680B681A4302608B6881229A4310D092
:108FF000426A0B689A4342628B6882229A430DD080
:10900000826A0B689A43826218E0C1691143C161A8
:109010007047426A0B681A434262EDE7826A0B6846
:109020001A4382620AE002680B689A4302604A6847
:10903000202A0BD042680B681A434260CA68402A53
:1090400009D0026909688A430261704742680B6867
:109050009A434260F2E7026909680A430261704775
:10906000FEE7000010B50446002C05D0012C03D00B
:10907000D62107A0F8F78AFD0D484021002C03D027
:1090800082680A43826010BD82688A43826010BD94
:109090002E2E5C4C69627261726965735C737263D7
:1090A0005C637733326C3031315F6932632E630039
:1090B0000058004010B50446002C05D0012C03D008
:1090C000832108A0F8F762FD0E48002C04D08168C7
:1090D00001221143816010BD816849084900816007
:1090E00010BD00002E2E5C4C69627261726965735E
:1090F0005C7372635C637733326C3031315F693239
:10910000632E630000580040FEB56F4C6069410754
:10911000490F25D1C2106D4D0C3AE8780290002617
:109120000121681D1300F8F7D0FC0E080808081C80
:10913000471C47515353B7C9C5C9A06AC00701D0DE
:109140002E710CE0A06A800701D5297107E0A06AA2
:10915000400702D50220287101E0FF2028712E70FF
:10916000ACE02878002805D0E068C1B22879002852
:1091700003D01DE0E068E8701AE0052918D20298D3
:10918000102806D0112808D012280AD013280FD191
:109190000BE00020F8F7F4F90AE00120F8F7F0F905
:1091A00006E00220F8F7ECF902E00320F8F7E8F90E
:1091B0002878401C287081E0E068A06810210843EE
:1091C000A060A06808218843A060FEBD2E7075E0F5
:1091D000A26AD20701D02E710CE0A26A920701D5D3
:1091E000297107E0A26A520702D502222A7101E022
:1091F000FF222A71354A0023937053701579344A3F
:10920000D6881379F7B20197360AB646177856789A
:10921000BC460096DB069778DB0ED278002D05D091
:109220002A4E012D24D0022D33D047E0029D274E37
:10923000002D0AD0012D0BD0022D10D0FF2202707C
:109240007170B1700078E06038E003707170F8E719
:10925000019A02707246427002227270F1E7634610
:109260000370009B43708770C27004227270E8E73D
:109270000370019D4570754685706546C570009DFB
:109280000571477182710722304672708170E36008
:1092900014E00020E06011E0A9786A78914204D2DD
:1092A0004A1CAA70405CE06008E0A0680421884382
:1092B000A06003E0A06804210843A060A168082022
:1092C0008143A160FEBD0000005800403B0000202B
:1092D00020000020044A1169FE2340089943400001
:1092E000014311617047000000580040044A516A70
:1092F000FE2340089943400001435162704700003B
:1093000000580040F8B56846F8F738F8002803D050
:109310003F200002694648806846644F40883E68A6
:1093200001060823C90F9E43C9000E4310218E4336
:109330004106C90F09010E4319028E438106C90F68
:10934000C9020E435C02C106C90FA64309030E43BE
:1093500019048E430107C90FC9040E4359048E43F3
:109360004107C90F09050E4319068E438107C90F2E
:10937000C9060E4359068E43C107C9080E43990218
:109380008E434105C90F49030E43D9028E4381051F
:10939000C90F89030E431903C205D20F8E43D203AE
:1093A0001643202296438204D20F52011643C5046D
:1093B0004022ED0F9643AD012E4300058025C00FDE
:1093C000AE43C00106433E603948370701D5C4614A
:1093D00000E08461F40601D5C16100E08161354C93
:1093E000370501D5E36100E0A361F30402D5102342
:1093F000E36101E01023A361330302D52023E3617D
:1094000001E02023A361F30201D5E26100E0A26143
:10941000330101D5E56100E0A561274BF40003D5D8
:1094200001246403DC6102E0012464039C61B40450
:1094300001D5D96100E099612049740401D5C16169
:1094400000E081611E49340401D5C16100E0816101
:10945000B10603D501218903D96102E00121890305
:109460009961710603D50121C902C16102E00121A0
:10947000C90281611349330601D5C16100E08161F0
:109480007107490F04290ED07105490F04290AD02C
:109490007103490F042906D07101490F042902D034
:1094A00082610020F8BDC261FBE7000020000020BF
:1094B000400000484001004840020048000200000F
:1094C000000100000004000010B5042801D30120B1
:1094D00010BD002910D0094B0A781C5CD208D200BC
:1094E0006407640F22430A70185CE724C006800FEB
:1094F0002240C00002430A70002010BD200000205E
:1095000010B5F8F74FFC10BD7CB578251E2400235C
:109510001A461149114801950094F8F70FFC0F48BD
:1095200000231A460E49303001950094F8F706FCE6
:109530000C4A0521094800F051F908480A4A05215A
:10954000303000F04BF90548F8F71AFC034830308A
:10955000F8F716FC7CBD0000159A0000DC00002026
:10956000999A0000AD150000111600007047704771
:109570007047000010B5134C20684107490FA069DF
:109580004004020F104B114800290ED0012911D0C0
:10959000032911D0042911D091005958F7F730FD53
:1095A00021680906490FC84010BD91005958F7F7C6
:1095B00027FDF5E70648F3E70648F1E70120C00379
:1095C000EEE7000000400040489C000000D8B805CD
:1095D0000024F400208000007047000010B504460D
:1095E000002C11D0202C0FD0402C0DD0602C0BD093
:1095F000802C09D0A02C07D0C02C05D0E02C03D0A3
:109600003E2106A0F8F7C2FA0D4801680D4A114044
:109610000D4A21431143016010BD00002E2E5C4C09
:1096200069627261726965735C7372635C637733DC
:10963000326C3031315F7379736374726C2E6300F6
:1096400000400040E7FF000000005A5A00B5164BEA
:10965000188841051548490D8269D20AD2020A4389
:1096600082615988026A8905890D920A92020A4329
:1096700002628169C2014905D14206D181690F2286
:10968000C90AC902D20189188161016A01228905CA
:109690009205D14204D1016A890A89027F310162AF
:1096A000F8F7C0F900BD0000C007100000400040FE
:1096B00070B500F00DFA1F4ADF261078151F41071C
:1096C000490F00240B00F8F700FA08070705051DED
:1096D0001D1D1D316C8070BD6988852902D2491C11
:1096E000698070BD14490B69DB06FAD56C80548023
:1096F0008307F6D420238B6140238B6130401070A8
:10970000948070BD6C8051888529FAD2810701D57B
:10971000948070BD9188094B994202D2491C918076
:1097200070BDFB2108403040107070BD54806C80CB
:1097300070BD00001600002040000048589800004E
:1097400070477047002805DBC106C90E012088401C
:10975000014908607047000000E100E010B5054ACB
:109760000A23918E126C59435043F7F749FC80B29B
:1097700010BD00003C01002010B50120F8F708FAE8
:10978000124B64220A211248FFF77EF9114C6080C7
:10979000FFF7E4FF0A21615E814200DA608160899F
:1097A000E080F8F753FA0C4806214156012903DD01
:1097B0000178F722114001700A20205EFF212D312F
:1097C000884201DD012010BD002010BDAC0D00005D
:1097D00040010020CC00002016000020890008185D
:1097E0000261704770B50446E168207A88470146F7
:1097F000E079420702D02288521C2280C309C72286
:109800008B4212D00623D84101235B07C0181A23CC
:10981000D84183065B0FE071052B08D34006400E4C
:10982000C90108431040E07101E01040E071E079A7
:1098300000254107490F0B00F8F747F90604244EAD
:109840008FD3B4D3C1094006C00F814214D1A0798F
:109850000007000FA0712169002901D02046884728
:109860002580A07900090001401CA071E079C008A2
:10987000C000401CE07170BDA0790007000F80306F
:10988000A07170BDC1094006C00F814210D0A079FF
:109890000007000F1030A0716169002901D0204637
:1098A00088472580E079C008C000801CE07170BD49
:1098B0002088A1888842FAD9A0790007000F50308B
:1098C000A071616A002901D020468847E079C0086C
:1098D000C000401DE07170BDC1094006C00F81424B
:1098E0001CD1A0790007000FA0712169002901D0C7
:1098F00020468847A0790421C841890640181C21C8
:10990000C841A071A169002901D02046884725805F
:10991000E079C008C000C01CE07170BD20881E281E
:10992000FBD9A0790007000F012802D0022808D037
:109930000EE03030A071E169002909D02046884747
:1099400006E04030A071216A002901D020468847F6
:10995000E079C008C000E07170BD4206C109D20FB5
:10996000914218D0A0790007000F1030A0716169F2
:10997000002901D02046884720881E2806D225804D
:10998000E079C008C000801CE07170BDE079C008BB
:10999000C000E07170BD21881E29FBD9C008C0003D
:1099A000E07170BDC1094006C00F81420AD1A079A3
:1099B0000007000F6030A071A16A0029F1D0204695
:1099C000884770BDA0790007000F1030A071616951
:1099D000002901D020468847E079C008C000E07126
:1099E00070BDC008C000E07170BDF7F7E3FEF7F787
:1099F0001DFBFFF757FAF7F719FEFFF761F9F7F7C5
:109A00008BFB01210846FEF729FFF8F717F8F8F756
:109A1000D7F9FCE730B51E490A691E4B1207D20F71
:109A200014011A79EF252A4022430C69F725E4072F
:109A3000240F2A4022430C69FB25E406E40FA4000E
:109A40002A4022430C69FD25A407E40F64002A4044
:109A5000224309694907CC0F510849002143197174
:109A60000300F8F732F80504070A0D101300C806C2
:109A7000C00F30BD0807C00F30BD4807C00F30BD54
:109A80008807C00F30BDC807C00F30BD012030BDF2
:109A900040000048200000200C49002805D0012883
:109AA0000BD002280DD0012070470869C043800701
:109AB00001D000207047012070470869C007C00F1F
:109AC000704708698007C017401C70474001004874
:109AD000F0B54B4E30690022C04384074948011D50
:109AE0000B78002C09D04478062C02D2641C4470F8
:109AF00018E0022423430B7014E05D07414BFD2462
:109B00001B1D1B780A272340002D03DB07704270C2
:109B10000B7007E007704478002C02D0641E44707C
:109B200000E00B7033699B070AD40378002B02D046
:109B30005B1E03700EE00B785B085B000B7009E0A6
:109B40000378142B02D25B1D037003E00B78012411
:109B500023430B702B49091D0F460C787B88A50702
:109B6000591E8EB206217956002D1BDA3846E507BC
:109B70000BD00C2B02D90C3B438003E04280F72131
:109B80000C4004700421C171F0BD002B05D046804B
:109B9000012902DDF72214400470042900DD0421AC
:109BA000C171F0BD174D2D1D6D886D1CADB2002922
:109BB00001D027070AD51348001DC271422B01D2DC
:109BC0004580F0BD08210C430470F0BD4F1C0BD044
:109BD0000C48001DC1710129F7DD002BF5D046802E
:109BE000F7210C400470F0BD0649091DCA71852B90
:109BF000F9D24D80852DF6D384214180F0BD00003F
:109C0000400100481200002010B5029C41618260B2
:109C1000C3600349496801604260046110BD0000EF
:109C200048000020074A07E0814203D1886910609C
:109C3000002070470A46183211680029F4D100202C
:109C400070470000480000202000000001000000D4
:109C500002000000030000000400000005000000F6
:109C600006000000070000000800000009000000D6
:109C70000A0000000C0000001000000014000000AA
:089C8000180000001C000000A8
:04000005000000C136
:00000001FF
