:020000040000FA
:100000004803002001880000E7160000998E0000D8
:1000100000000000000000000000000000000000E0
:100020000000000000000000000000006F18000049
:100030000000000000000000AF940000CD9500001B
:10004000A51B0000AD9400006D1800009114000085
:1000500025950000931400009D140000698D000098
:100060000000000000000000000000000000000090
:100070008510000013880000A31B00006396000099
:10008000138800001388000000000000E51600003F
:100090009D8B00001388000013880000159000005D
:1000A00000000000B194000000000000A11B00004F
:1000B0006196000013880000000000001D8D000004
:1000C0000448854600F008F800480047351D000048
:1000D000C046C04648030020064C0125064E05E0F8
:1000E000E36807CC2B430C3C98471034B442F7D359
:1000F000FFF7EAFF1C0100003C01000002E008C815
:10010000121F08C1002AFAD170477047002001E091
:1001100001C1121F002AFBD1704700003C01000002
:100120000000002054000000FC00000090010000CE
:1001300054000020F40200000C0100000000000048
:1001400000000000000000000A00000000000000A5
:10015000000000000000000000000000000000009F
:10016000300000203000002030000020000000009F
:100170000000FFFF00000000000000000000000081
:1001800000000000000000000000000000093D0029
:020000040000FA
:10100000D2B201E00270401C491EFBD270470022A0
:10101000F6E710B513460A4604461946FFF7F0FFF7
:10102000204610BD70B505460C46002C06D0012C9C
:1010300004D0FF2141310BA000F0DCFD002D04D1D4
:10104000FF21423107A000F0D5FD01208007002CD0
:1010500003D081692943816170BD8169A9438161A0
:1010600070BD00002E2E5C4C6962726172696573FE
:101070005C7372635C637733326C3031315F61640F
:10108000632E630010B50D4AD06B00238007002843
:1010900011DA0B490878092802D2401C087000E0D8
:1010A0000B7010680C7864006418A08050680C788D
:1010B000640061180883936310BD00004000004085
:1010C00004010020FFB581B086468C460020002434
:1010D00000256146002905D0022905D27046008806
:1010E00005B0F0BD0020FBE700210026002315E03D
:1010F0005F007246D25B039FBA420DD3049FBA428F
:101100000AD8002E14D0824200D91046A24200D242
:1011100014465519491CC9B25B1CDBB26345E7D3C1
:10112000022909D803998842DAD870460088D7E79F
:10113000104604460126ECE7281A001B891E07F01A
:101140006DFB80B2CCE7000000B587B02648816B0C
:10115000264A1143816326484168D2049143416085
:10116000416852009143416041680F22120591434A
:10117000416041680215914341604168C214914346
:101180004160416882149143416041684214914337
:10119000416041680F22120491434160416803227B
:1011A00012029143416041680214914341604168D9
:1011B000090A090241600120694608700020019077
:1011C00010210291039004904B20400105901820BB
:1011D0000690684607F082FC022000F00BF8012020
:1011E00007F070FC07B000BD0040004020005A5AD4
:1011F0004014004010B504461F2C03D987210AA0D3
:1012000000F0F8FC11484168702291436207520EC9
:10121000114341604168032252069143E206920F56
:1012200052061143416010BD2E2E5C4C6962726102
:10123000726965735C7372635C637733326C3031EF
:10124000315F6174696D2E6300000000001400407E
:1012500010B52949087803280DD2401C08700A21CE
:10126000264808F021FA012080070168FF22C132D8
:101270009143C03101602148E122214B92000A21B3
:101280001438FFF71FFF1F4C60801C4908310028ED
:1012900001D10A208874887C002802D0401E8874FE
:1012A00002E0002000F0A8FC174A6188D088890578
:1012B000800A8002890D0843D0800F21890288436B
:1012C0000421615E002900DA08210907890C08431E
:1012D0000E4B19698907CC170121A1438903012409
:1012E000A403A043084319694004C907090C400C32
:1012F0000843D08010BD0000000000201C01002029
:10130000DC050000C4000020180000204001004857
:101310001CB50E48416B0E4A1143416300206A46DA
:1013200010800C499180D08050800B4C694620463B
:1013300000F04CF801221146204607F0ADFC0749A9
:1013400061620121204607F06DFC1CBD0040004099
:1013500004005A5A7FBB000000480040409C000037
:1013600070B504460D460F4884420BD00D484030FE
:10137000844207D00B488030844203D082210AA0E7
:1013800000F038FC012D05D0402D03D0832106A0AC
:1013900000F030FC2069284201D0012070BD0020FF
:1013A00070BD0000004800402E2E5C4C69627261E6
:1013B000726965735C7372635C637733326C30316E
:1013C000315F6274696D2E630000000070B50446E1
:1013D0000D46224884420BD020484030844207D03A
:1013E0001E488030844203D049211DA000F002FC39
:1013F0006888002809D0032807D0012805D00228D2
:1014000003D04A2116A000F0F5FB28881D49401E94
:10141000884203D94B2112A000F0ECFBE888082891
:1014200005D0002803D04C210DA000F0E3FB1648A6
:10143000416B164A11434163A888E0622888A06284
:10144000206808218843E98808432060A0686988EB
:10145000C008C0000843A06070BD00000048004004
:101460002E2E5C4C69627261726965735C73726383
:101470005C637733326C3031315F6274696D2E6337
:1014800000000000FEFF00000040004004005A5A27
:10149000704700200921C906886370470149002070
:1014A00088637047000100480A68002A20D04B6812
:1014B000002B1AD0C3699343C3610A79D20622D59F
:1014C00002680B681A4302608B6881229A4310D02D
:1014D000426A0B689A4342628B6882229A430DD01B
:1014E000826A0B689A43826218E0C1691143C16144
:1014F0007047426A0B681A434262EDE7826A0B68E2
:101500001A4382620AE002680B689A4302604A68E2
:10151000202A0BD042680B681A434260CA68402AEE
:1015200009D0026909688A430261704742680B6802
:101530009A434260F2E7026909680A430261704710
:101540004165704730B5134909684B054A075B0F81
:10155000520FDB001A434B035B0F9B014901490FFC
:101560001A4349020A430280FF24963400210A4BA1
:101570000BE08D005D5BAA4205D18900C91849883E
:101580004180002030BD491C89B2A142F1D3012025
:1015900030BD000018000020081E000010B50446F1
:1015A000002C05D0012C03D0682107A000F022FBFD
:1015B0000D480421002C03D082680A43826010BDCC
:1015C00082688A43826010BD2E2E5C4C6962726113
:1015D000726965735C7372635C637733326C30314C
:1015E000315F6932632E630000580040044A11697C
:1015F000FE234008994340000143116170470000F9
:1016000000580040044A516AFE23400899434000B4
:1016100001435162704700000058004010B5042893
:1016200001D3012010BD002910D0094B0A781C5CA1
:10163000D208D2006407640F22430A70185CE724C2
:10164000C006800F2240C00002430A70002010BD77
:101650001800002010B5052901D2042801D301206B
:1016600010BD064A4907135C490FDB08DB000B433A
:10167000135407F00DFE002010BD000018000020DC
:10168000F8B5154C20252078144E4107002917DBAA
:1016900080070027002801DA678004E008F036F8A8
:1016A000002800D06780022000F044F80C49002098
:1016B000FFF7B4FFF5612078042108432070F8BDDE
:1016C000800703D4B561002000F034F82078FB21B6
:1016D00008402070F8BD00001000002040000048C5
:1016E0000A0000207047704710B572B603210C2025
:1016F00007F0B8FF02210D2007F0B4FF00211420ED
:1017000007F0B0FF0121172007F0ACFF0C2000F01C
:1017100057FA0D2000F054FA142000F051FA172067
:1017200000F04EFA052000F04BFA062000F048FACF
:1017300062B610BDF0B585B04849002828D08A6847
:10174000920704D48A68464B92B21A438A600721F2
:1017500009240905002520231026E4060A01012892
:1017600021D003277F0302283AD0032851D0042830
:101770006CD06069884360616069904360610097E4
:101780000395019669462046FFF78EFE05B0F0BD31
:101790008A689207DBD58A68324B1A40304B9B1E11
:1017A000D2188A60D3E7606988430121090540188F
:1017B000606160690901904340186061019388127B
:1017C0000090039569462046FFF76EFE0120400316
:1017D00000900395019669462046FFF765FED5E720
:1017E00060698843012189054018606160690901C9
:1017F00090434018606121200190009740200390A1
:1018000069462046FFF750FE174841693943416158
:10181000BCE760698843012149054018606160693F
:1018200009019043401860610193081300900395EB
:1018300069462046FFF738FE01208003009003959B
:10184000019669462046FFF72FFE9FE7606908432F
:10185000606160691043606198E7000000400040EB
:1018600002005A5AFDFF00004000004870477047D0
:1018700010B5134C20684107490FA0694004020FBE
:10188000104B114800290ED0012911D0032911D085
:10189000042911D09100595806F0C0FF21680906AB
:1018A000490FC84010BD9100595806F0B7FFF5E741
:1018B0000648F3E70648F1E70120C003EEE7000021
:1018C000004000405C24000000D8B8050024F4006B
:1018D00020800000F8B50446444D0126F60277004A
:1018E000B4423AD0BC4238D00320C002844234D043
:1018F000B000844231D00520C00284422DD00320A4
:101900000003844229D00720C002844225D0F00081
:10191000844222D00920C00284421ED00520000348
:1019200084421AD00B20C002844216D00320400308
:10193000844212D00D20C00284420ED00720000342
:1019400084420AD00F20C002844206D0002C04D06A
:10195000FF211F3126A000F04DF92E492E48B44238
:1019600004D182682D4B1A43826027E0BC4203D029
:101970000322D20294420FD182695204120F012A2B
:1019800004D10A885205520D224382618268234B9A
:10199000203B1A43826011E082695204120F032A2D
:1019A00004D80A885205520D2243826182680F4B87
:1019B000703B1A40194B303BD218826009884905A8
:1019C000490D214381614168144A2F3A1143416016
:1019D00001E06D1EADB28169090401D4002DF8D17A
:1019E000002D01D00020F8BD0120F8BDFFFF000050
:1019F0002E2E5C4C69627261726965735C737263EE
:101A00005C637733326C3031315F73797363747236
:101A10006C2E6300C00710000040004030005A5A8E
:101A200010B50446002C11D0202C0FD0402C0DD026
:101A3000602C0BD0802C09D0A02C07D0C02C05D056
:101A4000E02C03D03E2106A000F0D4F80D48016838
:101A50000D4A11400D4A21431143016010BD0000A1
:101A60002E2E5C4C69627261726965735C7372637D
:101A70005C637733326C3031315F737973637472C6
:101A80006C2E630000400040E7FF000000005A5A3F
:101A900001490860704700005000002002490148D9
:101AA0000860704700093D005000002000B5164B4B
:101AB000188841051548490D8269D20AD2020A43A5
:101AC00082615988026A8905890D920A92020A4345
:101AD00002628169C2014905D14206D181690F22A2
:101AE000C90AC902D20189188161016A01228905E6
:101AF0009205D14204D1016A890A89027F310162CB
:101B0000FFF7CCFF00BD0000C00710000040004000
:101B100010B507F05DFD10BD38B500240A2365221D
:101B20001A491B48009408F075F819481E2316221C
:101B300018491C38009408F06DF8154864233222C7
:101B400015491C30009408F065F8114808F08EF82B
:101B50000F481C3808F08AF80D481C3008F086F849
:101B60000B48C82308220D493830009408F052F879
:101B70000748383008F07AF807F0B8F907F088FB22
:101B800007F072FC07F004FD38BD0000619400000E
:101B900070000020111B000051120000218D000078
:101BA00070477047704730B47446641E2578641CD3
:101BB000AB4200D21D46635D5B00E31830BC1847A2
:101BC000002805DBC106C90E0120884001490860D4
:101BD0007047000000E100E010B5054A0A23918E2D
:101BE000126C5943504306F019FE80B210BD00003C
:101BF000040100207047000010B5174C6088FFF703
:101C0000EBFF6081154BD888002815D0002007F025
:101C100001FE014608000ED40A20205E002808DBE1
:101C20000F4A12785207920F13D0608907F0A0FD77
:101C3000A08000F017F810BD012007F0EBFD0A208E
:101C4000205E0028F7DBA0806088D88000F00AF8CA
:101C500010BDA080EDE70000C400002002000020BD
:101C60001000002010B5194A0420105EFF243734FC
:101C700000231749A0420ADA0A20105EFF222D3203
:101C8000904202DA581E887110BD8B7110BDFF2280
:101C90004B32904201DA8B7110BDFF2269329042C3
:101CA00002DA0120887110BDFF227D32904202DAF3
:101CB0000220887110BDFF229132904202DA032087
:101CC000887110BD0420887110BD0000C400002080
:101CD00010000020F8B504460D4617461E46302178
:101CE0002046FFF794F9A0790007000F8030A0711B
:101CF000E5603046A847C101E0794006400E084340
:101D0000BF210840F907490E0843E0712672069882
:101D1000A0700798A080F8BD10B50548046803E0DE
:101D2000204607F0C5FDE46A002CF9D110BD000083
:101D30004800002007F0BEFB06F08CFD07F01AF803
:101D4000FFF7D2FCFFF7E4FAFFF7FEF9012108469E
:101D5000FFF768F9FFF7E0FE07F06AFFFCE7000015
:101D600030B51E490A691E4B1207D20F14011A79A9
:101D7000EF252A4022430C69F725E407240F2A4067
:101D800022430C69FB25E406E40FA4002A40224309
:101D90000C69FD25A407E40F64002A402243096969
:101DA0004907CC0F51084900214319710300FFF77F
:101DB000FAFE0504070A0D101300C806C00F30BD57
:101DC0000807C00F30BD4807C00F30BD8807C00FDF
:101DD00030BDC807C00F30BD012030BD40000048F5
:101DE00018000020074A07E0814203D1886910608B
:101DF000002070470A46183211680029F4D10020EB
:101E000070470000400000205A21160B1A0C190BD5
:101E1000CA232613E20B29130A1C060362190903BD
:101E200053210619130C0919D1231211D40B2111B6
:101E3000111C1801541924018B22061AA30A091A2D
:101E40009922120A9C0A210AA11A18028C1A240249
:101E5000E1134610CC1349100B145618631159188E
:101E6000191466085C1169085A01140B1A04180B3E
:101E70001A08110B1A20120BCA032413E2032813A9
:101E8000C20B2113C22322130A18040322180803C9
:101E900042190103021C0203530104191304081917
:101EA0001308011913200219D1031011D4032011B2
:101EB000D00B0111D02302111118100114182001A8
:101EC00050190401101C08018B02041AA302081AFD
:101ED000830A011A8322021A9902100A9C02200A1C
:101EE000980A010A9822020A811A1002841A200212
:101EF000881A0402A01A08020B105418231058184C
:101F00004311511803145218191064081C10680862
:101F10005811610818146208C1134410C413481002
:101F2000C8134110E01342100A04A03B6201603B59
:101F30004221063B020C093B1104183911201239C9
:101F4000540124391408213950218639100C89395B
:101F5000A102483A8122423A8C02843A840A813AA8
:101F60008822823A211090380C1050384411813860
:101F70000A20583B2208A43BA00A513A0114A23877
:101F8000081498386011A4380B04A81F0B20A81F50
:101F90006301A81F2308A81F4321A81F030CA81F23
:101FA0001904A80F1920A80F5C01A80F1C08A80F7E
:101FB0005821A80F180CA80FE103A817C123A817D0
:101FC000CC03A817C40BA817C823A817E00BA817A1
:101FD0002118A807011CA8070C18A8074419A8076E
:101FE000081CA8076019A8070000003F0008013F6F
:101FF0000020023F0100403F0400403F0800883FAE
:102000002000603F4001043F0004083F0200003B05
:10201000100080398002803A001080380300A81F29
:102020001800A80FC003A8170018A8074009053F0B
:10203000000C093F181060080104143F0108443FD8
:102040000120483F4401443F0404483F0408443F02
:102050000420483F0804843F2004503F4021063FAD
:1020600000240A3F0208013B0220023B100881398C
:1020700010208239A002503A800A843A8022883A9D
:10208000081090382010A038401184380014883887
:1020900008208A3F2020623F0308A81F0320A81FB2
:1020A0001808A80F1820A80FC00BA817C023A8173E
:1020B0004019A807001CA8070900903F2100403FD5
:1020C0004101A03F0C00243F2400403F4801403F15
:1020D0006001803F0A00503B2200A03B4201043BCC
:1020E0000204083B110010391400203950018439D2
:1020F000100488398102403A8402803A8802803A8A
:102100000110A038041080380808893F2008613F7A
:102110000B00A81F2300A81F4301A81F0304A81F2A
:102120001900A80F1C00A80F5801A80F1804A80F29
:10213000C103A817C403A817C803A817E003A8176A
:102140000118A8070418A8070818A8072018A80746
:102150001A00100BC2032013021800031300001909
:10216000D0030011101800018302001A9802000A1F
:10217000801A000203105018C01340104A01903B0F
:102180004C01183F4809413F6009813F5101143912
:102190008902443A091060384901943F6101A43F23
:1021A0004109A13F6401283F2204903B4209053BBD
:1021B00002240A3B140428395009853910248A392D
:1021C000A402883A880A813A24106038200C513FD2
:1021D0004309A81F5809A80FC80BA8174819A80732
:1021E0000904983F0908913F0920923F2104A83F24
:1021F0002108413F2120423F4121A23F2408413F85
:102200002420423F4821423F6021823F110811397A
:1022100014202239810A413A8422823A04148238F5
:102220000124163F0C20263F4421463F040C493F21
:1022300004244A3F080C853F0824863F2024523F4F
:102240002220A83BA022523A2014A8380B08A81F2D
:102250002320A81F0324A81F1908A80F1C20A80FBB
:102260001824A80FC10BA817C423A817E023A81788
:102270004119A807041CA807201CA8070C04103F3C
:102280002404203F010C153F0C08253F4409453F1D
:102290000A08543B4111A138481194384B01A81F3A
:1022A0002304A81F5901A80F1C04A80FC903A817CD
:1022B000E403A8170918A8072418A8075909A80FA4
:1022C000C90BA8174919A807CA0B25134A190503F2
:1022D00053090519D10B1111511914018B0A051A53
:1022E000990A110A891A14024B115518C91345107D
:1022F0004A09913B6309A81F5C09A80FCC0BA817DA
:102300004C19A8075A09150B0C0C113F240C213F3E
:102310004C09193F6409293F6209643B5109153989
:10232000491161384C1154384B09A81F0B0CA81FD8
:10233000230CA81F190CA80F1C0CA80FE10BA81741
:10234000E40BA8176119A8076419A8071A241A0B27
:10235000E2232A13221C0A0313240A19D42322116C
:10236000141C2801A3220A1A9C22220AA41A280259
:10237000E4134A100C24123F2424223F23145A1839
:10238000591165081C146A084909953F4921963F6F
:10239000090C993F09249A3F6109A53F6121A63F95
:1023A000210CA93F2124AA3F4C211A3F64212A3F36
:1023B0004A21923B0A0CA13B0A24A23B6221683BC2
:1023C000220C943B2224983B51211639110C1939C7
:1023D00011241A395409253954212639140C293964
:1023E00014242A39890A453A8922463AA10A493AE7
:1023F000A1224A3A8C0A853A8C22863AA40A893A62
:10240000A4228A3A09146238611191382114923851
:102410000C14583864116438241468384B21A81FF0
:102420000B24A81F6321A81F2324A81F5921A80F2C
:102430001924A80F5C21A80F1C24A80FC923A817D2
:10244000E123A817CC23A817E423A817091CA80781
:10245000211CA8070C1CA807241CA80720000000AA
:102460000100000002000000030000000400000062
:102470000500000006000000070000000800000042
:10248000090000000A0000000C000000100000001D
:0C24900014000000180000001C000000F8
:020000040000FA
:108800000448804704480047FEE7FEE7FEE7FEE72E
:10881000FEE7FEE7AD1A0000C100000030B50B46D0
:10882000014600202022012409E00D46D5409D424A
:1088300005D31D469540491B2546954040191546D0
:10884000521E002DF1DC30BD0149002088637047C5
:108850004000004010B594B01648816B164A114391
:108860008163302000900020019040200390072079
:1088700005900F20049007900690684600F05CF881
:1088800001210846F8F7CEFBFFF7DEFF01210220A9
:1088900000F022F800F018F80848094C408AE0631C
:1088A00008494843FF21F431FFF7B8FF206414B0B2
:1088B00010BD00000040004001005A5AC0071000DF
:1088C00004010020DB05000001208007016801226F
:1088D000114301600120704770B504460D46002D1C
:1088E00005D0012D03D0F7210AA0F9F783F920095B
:1088F00001D1002C03D1F82106A0F9F77BF90D482E
:10890000002D03D0416B2143416370BD416BA143F6
:10891000416370BD2E2E5C4C696272617269657331
:108920005C7372635C637733326C3031315F6164E6
:10893000632E630040000040F8B50446206800281C
:1089400009D0102807D0202805D0302803D05D2179
:1089500052A0F9F74FF95948816B594A1143816385
:10896000E16820686368014390070268FF25F935D4
:10897000AA43134319430160227A0221002A03D03B
:1089800002680A43026002E002688A430260627A77
:108990000421002A03D002680A43026002E0026850
:1089A0008A430260C16A227D090909011207120F78
:1089B0001143C162C16A237FF0221B0791431B0E42
:1089C0001943C162C16AA58C13012D0799432D0D6E
:1089D0002943C162C16AA68D15023607A943360C28
:1089E0003143C162C16A1603B143A68E3607360B06
:1089F0003143C162C16AA78F16043F07B1433F0AE2
:108A00003943C162C16A1705B943676C3F073F0923
:108A10003943C162C16AE76C090109093F0739435B
:108A2000C162816A277C090909013F073F0F394369
:108A30008162816A9143227E1207120E1143816284
:108A4000816A228C99431207120D11438162816A57
:108A5000228DA9431207120C11438162816A1A0206
:108A60009143228E1207120B11438162816A228F79
:108A7000B1431207120A11438162816A1A049143B9
:108A8000226C1207120911438162816AA26C0901EA
:108A90000909120711438162F8BD00002E2E5C4CBB
:108AA00069627261726965735C7372635C63773368
:108AB000326C3031315F6164632E630000400040EE
:108AC00001005A5A04490A68C00752085200C00FF0
:108AD00002430A60704700000014004010B50446CD
:108AE000A068002805D0102803D028211FA0F9F77E
:108AF00081F8E068082805D0002803D029211BA0B0
:108B0000F9F778F86068002809D0202807D04028B5
:108B100005D0602803D02A2114A0F9F76BF81C496E
:108B20002069884203D92B2110A0F9F763F819486E
:108B3000816B202211438163A168E0686268014370
:108B40002078002801D0802000E000200243124855
:108B500011430268F8239A4311430160216981623D
:108B60006169C162A169016310BD00002E2E5C4CD9
:108B700069627261726965735C7372635C63773397
:108B8000326C3031315F6174696D2E63000000001A
:108B9000FFFF0000004000400014004010B5074CEB
:108BA00001212046F8F7DCFB002805D001212046F2
:108BB00000F006F801F06CF810BD0000004800401D
:108BC00070B504460D460D4884420BD00B4840302A
:108BD000844207D009488030844203D0922108A003
:108BE000F9F708F8012D05D0402D03D0932104A0FA
:108BF000F9F700F8A069A843A06170BD00480040E3
:108C00002E2E5C4C69627261726965735C7372636B
:108C10005C637733326C3031315F6274696D2E631F
:108C20000000000070B504460D46114884420BD088
:108C30000F484030844207D00D488030844203D032
:108C400063210CA0F8F7D6FF002D05D0012D03D02D
:108C5000642108A0F8F7CEFF002D04D02068012180
:108C60000843206070BD206840084000206070BD4F
:108C7000004800402E2E5C4C696272617269657317
:108C80005C7372635C637733326C3031315F627472
:108C9000696D2E630000000070B504460D4616464F
:108CA000144884420BD013484030844207D0114806
:108CB0008030844203D072210FA0F8F79BFF002E72
:108CC00005D0012E03D073210BA0F8F793FF012DDF
:108CD00005D0402D03D0742107A0F8F78BFF002E9C
:108CE00003D0E0682843E06070BDE068A843E0601E
:108CF00070BD0000004800402E2E5C4C696272611D
:108D0000726965735C7372635C637733326C3031A4
:108D1000315F6274696D2E630000000070470000CF
:108D200010B5104C2368002B1BD001200343236097
:108D3000201D0146826803C9002A05D0002903D0FE
:108D4000002801D098470AE0002903D0002801D06C
:108D5000984704E0002801D0984700E09847002099
:108D6000206010BD2000002001490020886370476A
:108D700000020048F0B585B04248016B424A1143F9
:108D80000163016B404A103211430163016B3E4A9B
:108D900030321143016309200021C006F8F7D0FBEF
:108DA00000213A48F8F7CCFB00213948F8F7C8FB16
:108DB00080200290009000240394019409206946C9
:108DC000C006F8F771FB009469463048F8F76CFB71
:108DD000102601960394009409206946C006F8F70E
:108DE00063FB009469462948F8F75EFB4027039728
:108DF0001F20009009206946C006F8F755FB0320A4
:108E0000009069462148F8F74FFB009469462048D6
:108E1000F8F74AFB2125019500940397092069463C
:108E2000C006F8F741FB20200190039419480090F8
:108E300009206946C006F8F737FBB820009069465C
:108E40001248F8F731FB07204003009069461048AC
:108E5000F8F72AFB019503256D0300950920694663
:108E6000C006F8F721FB009469460848F8F71CFB98
:108E700000950394019609206946C006F8F714FB93
:108E800005B0F0BD0040004010005A5A00010048F3
:108E900000020048609F0000FEE7000010B5044695
:108EA000002C05D0012C03D0D62107A0F8F7A2FE94
:108EB0000D484021002C03D082680A43826010BD17
:108EC00082688A43826010BD2E2E5C4C696272619A
:108ED000726965735C7372635C637733326C3031D3
:108EE000315F6932632E63000058004000B585B0E1
:108EF0001148416B114A11434163114800901148D8
:108F0000019054206946087456204874582088748B
:108F10000020C87400F01AF8684600F081F90A4889
:108F200081680122114381600120FFF7B7FF012012
:108F3000F8F734FB05B000BD0040004040005A5A2D
:108F4000006CDC0240420F000058004005484268B7
:108F500040218A43426042680A434260024900203D
:108F600088607047404000400058004010B50446FB
:108F7000002C05D0012C03D0832108A0F8F73AFE7D
:108F80000E48002C04D0816801221143816010BD7D
:108F9000816849084900816010BD00002E2E5C4C9C
:108FA00069627261726965735C7372635C63773363
:108FB000326C3031315F6932632E630000580040FB
:108FC00010B50446002C05D0012C03D0C02108A008
:108FD000F8F710FE0E48002C04D00169012211435D
:108FE000016110BD016949084900016110BD00001F
:108FF0002E2E5C4C69627261726965735C73726378
:109000005C637733326C3031315F6932632E6300D9
:1090100000580040F0B585B0784841694A07520FC2
:109020002ED1CF10774D7649EA7804920A780392D0
:109030004A7802928A780192CA780C3F0092002600
:1090400001246A1D3B00F8F7AEFD0E080808081C55
:10905000561C56616363C2D4D0D4816AC90701D05B
:109060002E710CE0816A890701D52C7107E0816AB5
:10907000490702D50221297101E0FF2129712E70D3
:10908000B7E02C78002C05D0C268D2B22B79002B27
:1090900003D02DE0C168E9702AE0052A28D2049B9C
:1090A000102B06D0112B0CD0122B12D0132B1FD14A
:1090B00017E0039B5207DB08DB00520F13430B70D2
:1090C00016E0029B5207DB08DB00520F13434B7084
:1090D0000EE0019B5207DB08DB00520F13438B703D
:1090E00006E0009B5207DB08DB00520F1343CB70F6
:1090F000641C2C707DE0C16881681022114381607E
:10910000816808229143816005B0F0BD2E7070E047
:10911000836ADB0701D02E710CE0836A9B0701D5BF
:109120002C7107E0836A5B0702D502232B7101E0F3
:10913000FF232B71334B00269E705E70304D1B79E0
:109140002E79ED88F6062F46F60EEDB23F0AAC46B4
:10915000002B05D02B49012B25D0022B34D048E021
:10916000049B284D002B0AD0012B0BD0022B0FD0D3
:10917000FF2111706C70AC701178C16039E016700D
:109180006C70F8E761461170577002216970F2E760
:10919000096811700B0A53700B0C9370090ED17093
:1091A00004216970E7E71670634653709770039B5C
:1091B000D370029B1371019B5371009B9371072223
:1091C0004A708C70C66014E00021C16011E0A9787B
:1091D0006B78994204D24B1CAB70515CC16008E0C3
:1091E000826804218A43826003E08168042211437B
:1091F0008160816808229143816085E700580040C2
:109200001800002033000020044A116AFE234008A1
:10921000994340000143116270470000005800402C
:1092200010B5044611496068884204D9FF213531E0
:109230000FA0F8F7DFFC61682068FFF7EFFA282835
:1092400003D80120FFF792FE02E00020FFF78EFE18
:10925000207CF8F7CBF9E07CFFF7B2FE607CFFF7EB
:10926000D3FFA07CF8F7CEF910BD000040420F00FC
:109270002E2E5C4C69627261726965735C737263F5
:109280005C637733326C3031315F6932632E630057
:10929000F8B56846F8F756F9002803D03F200002D9
:1092A000694648806846644F40883E680106082346
:1092B000C90F9E43C9000E4310218E434106C90FBA
:1092C00009010E4319028E438106C90FC9020E43DC
:1092D0005C02C106C90FA64309030E4319048E435D
:1092E0000107C90FC9040E4359048E434107C90F32
:1092F00009050E4319068E438107C90FC9060E439F
:1093000059068E43C107C9080E4399028E43410591
:10931000C90F49030E43D9028E438105C90F890342
:109320000E431903C205D20F8E43D20316432022E7
:1093300096438204D20F52011643C5044022ED0F1A
:109340009643AD012E4300058025C00FAE43C001FA
:1093500006433E603948370701D5C46100E08461A7
:10936000F40601D5C16100E08161354C370501D5B6
:10937000E36100E0A361F30402D51023E36101E09F
:109380001023A361330302D52023E36101E02023EE
:10939000A361F30201D5E26100E0A261330101D5CE
:1093A000E56100E0A561274BF40003D501246403C7
:1093B000DC6102E0012464039C61B40401D5D9613D
:1093C00000E099612049740401D5C16100E0816128
:1093D0001E49340401D5C16100E08161B10603D5A5
:1093E00001218903D96102E0012189039961710694
:1093F00003D50121C902C16102E00121C9028161D5
:109400001349330601D5C16100E081617107490F3D
:1094100004290ED07105490F04290AD07103490FA0
:10942000042906D07101490F042902D0826100206D
:10943000F8BDC261FBE700001800002040000048B2
:109440004001004840020048000200000001000006
:109450000004000010B500200121F8F7FBF810BD52
:1094600010B5F8F759FC10BD1CB578201E2100235B
:10947000009101901A4609490948F8F72BFC094A5E
:109480000321074800F010FA074A0521044800F0BC
:109490000BFA034800F010FB1CBD0000611D00002A
:1094A000D4000020559400008116000070477047DA
:1094B0007047000010B50820F8F7B2FA002000F05D
:1094C00033F80120C002F8F705FA11490F48086087
:1094D0001048114C60610321081F00F0C3F8002000
:1094E000A061072121610D4908700D48C16A490832
:1094F0004900C162C16A04229143C16281680823A4
:109500001943816081681143816010BD00D8B8059E
:1095100050000020FFFFFF0000E000E04C000020B2
:10952000004000407047000010B50446002C09D0F0
:10953000012C07D0032C05D0042C03D04A2108A00D
:10954000F8F758FB0F4908680F4A10400F4A2043AC
:1095500010430860F8F78CF9F8F79AFA10BD00008C
:109560002E2E5C4C69627261726965735C73726302
:109570005C637733326C3031315F7379736374724B
:109580006C2E630000400040F8FF000000005A5AB3
:1095900010B50C4C2078C008C000207000F09EFA76
:1095A00009480069C043800704D02078022108439D
:1095B000207003E02078FD21084020700120C04386
:1095C000A07110BD1000002040010048704700004D
:1095D00070B500F083FA1F4ADF261078151F410787
:1095E000490F00240B00F8F7DEFA08070705051DF0
:1095F0001D1D1D316C8070BD6988852902D2491CF2
:10960000698070BD14490B695B07FAD46C80548083
:109610008307F6D420238B6140238B613040107088
:10962000948070BD6C8051888529FAD2810701D55C
:10963000948070BD9188094B994202D2491C918057
:1096400070BDFB2108403040107070BD54806C80AC
:1096500070BD000010000020400000485898000035
:10966000704770478307FF22DB0E9A408907090E77
:109670009940002808DB830809489B0018180368F4
:1096800093430B43036070470007000F08388308BB
:1096900004489B001818C36993430B43C361704788
:1096A00000E400E000ED00E010B57D23E1221B01A5
:1096B0009200F7F707FD104C0146A0860F4A80186C
:1096C000332811D319208001814202D90C48A063AC
:1096D00008E0AF20C000814202D90A48A06301E03F
:1096E0000948A063012010BDE06B0003FFF796F866
:1096F000A063002010BD0000040100204AFCFFFF11
:10970000B80B0000E40C00008813000010B5012025
:1097100000F080F8124B64220A211248F7F7D2FCBD
:10972000114C6080F8F758FA0A21615E814200DA34
:1097300060816089E080F8F795FA0C48062141566F
:10974000012903DD0178F722114001700A20205E13
:10975000FF212D31884201DD012010BD002010BD08
:10976000AC0D000008010020C40000201000002003
:10977000F0B5264C064606220C3EA25E33B2521CC1
:109780009C46234D03B2002A06D1002902DD624621
:10979000E28000E0E38029700022AA568A4204D0C9
:1097A0000622AA7003226A7029700622A25E07466A
:1097B0000C37BA4201DD5027AF70002901DAE3808F
:1097C00021E0002700290EDD6878A978884204D2BC
:1097D000401C68706046E08015E0B24213DA6F709A
:1097E000521CE2800FE06978002902D0491E69709E
:1097F00009E06F70824202DD521EE28003E03232E5
:10980000824200DAE3800620205EF0BDC400002022
:1098100002000020224A2349012809D01069C043D0
:10982000800715D0C878282817D2001DC87014E00A
:109830001069C043800701D0282000E00020C870D4
:109840001069800701D4002000E01420087112E0A4
:10985000C878002801D0401EC8701069800705D460
:109860000879142807D2401C087104E00879002800
:1098700001D0401E0871C878282801D200280CD1D8
:109880000979002901D0142907D3282801D30029F8
:1098900001D000207047012070470020C04370476E
:1098A000400100480200002089000818026170474A
:1098B00070B50446E168207A88470146E07942079E
:1098C00002D02288521C2280C309C7228B4212D0A8
:1098D0000623D84101235B07C0181A23D841830609
:1098E0005B0FE071052B08D34006400EC901084309
:1098F0001040E07101E01040E071E079002541077F
:10990000490F0B00F8F74FF90604244E8FD3B4D358
:10991000C1094006C00F814214D1A0790007000F91
:10992000A0712169002901D0204688472580A079AF
:1099300000090001401CA071E079C008C000401C73
:10994000E07170BDA0790007000F8030A07170BD7C
:10995000C1094006C00F814210D0A0790007000F56
:109960001030A0716169002901D020468847258008
:10997000E079C008C000801CE07170BD2088A1881B
:109980008842FAD9A0790007000F5030A071616AAF
:10999000002901D020468847E079C008C000401D5A
:1099A000E07170BDC1094006C00F81421CD1A07991
:1099B0000007000FA0712169002901D020468847C7
:1099C000A0790421C841890640181C21C841A07112
:1099D000A169002901D0204688472580E079C00888
:1099E000C000C01CE07170BD20881E28FBD9A07982
:1099F0000007000F012802D0022808D00EE0303006
:109A0000A071E169002909D02046884706E040306E
:109A1000A071216A002901D020468847E079C0085A
:109A2000C000E07170BD4206C109D20F914218D04A
:109A3000A0790007000F1030A0716169002901D0E2
:109A40002046884720881E2806D22580E079C00855
:109A5000C000801CE07170BDE079C008C000E071FA
:109A600070BD21881E29FBD9C008C000E07170BDFF
:109A7000C1094006C00F81420AD1A0790007000F3A
:109A80006030A071A16A0029F1D02046884770BDDE
:109A9000A0790007000F1030A0716169002901D082
:109AA00020468847E079C008C000E07170BDC0085A
:109AB000C000E07170BD0000074B19680A4605E060
:109AC000814202D10020C0437047C96A0029F7D102
:109AD000C26218600020704748000020F0B54B4E6D
:109AE00030690022C04384074948011D0B78002CCF
:109AF00009D04478062C02D2641C447018E0022479
:109B000023430B7014E05D07414BFD241B1D1B78A4
:109B10000A272340002D03DB077042700B7007E01B
:109B200007704478002C02D0641E447000E00B7073
:109B300033699B070AD40378002B02D05B1E0370A5
:109B40000EE00B785B085B000B7009E00378142BC8
:109B500002D25B1D037003E00B78012423430B70DA
:109B60002B49091D0F460C787B88A507591E8EB21C
:109B700006217956002D1BDA3846E5070BD00C2B51
:109B800002D90C3B438003E04280F7210C40047073
:109B90000421C171F0BD002B05D04680012902DDF2
:109BA000F72214400470042900DD0421C171F0BDC6
:109BB000174D2D1D6D886D1CADB2002901D02707F2
:109BC0000AD51348001DC271422B01D24580F0BD59
:109BD00008210C430470F0BD4F1C0BD00C48001D35
:109BE000C1710129F7DD002BF5D04680F7210C402B
:109BF0000470F0BD0649091DCA71852BF9D24D804C
:109C0000852DF6D384214180F0BD0000400100483D
:109C10000C00002010B5029C41618260C3600349C2
:109C2000496801604260046110BD000040000020EE
:109C300070B50D4D2C680FE020686968081A6168DE
:109C4000884208D3E068002809D069682160606014
:109C5000616920698847A469002CEDD170BD204658
:109C6000F8F7C0F8F4E7000040000020074B19683F
:109C70000A4605E0814202D10020C043704789694D
:109C80000029F7D182611860002070474000002051
:109C900002484168491C41607047000040000020B4
:04000005000000C136
:00000001FF
